:1000000000040010E5000000D5000000D900000049
:1000100000000000000000000000000000000000E0
:1000200000000000000000000000000000000000D0
:100030000000000000000000DD000000E100000002
:1000400041010000410100000000000041010000EA
:10005000410100004101000000000000000000001C
:10006000410100004101000059030000410100006E
:1000700041010000410100000000000041010000BA
:100080000000000000000000000000000000000070
:100090000000000000000000000000000000000060
:1000A0004101000041010000410100004101000048
:1000B0004101000041010000410100004101000038
:1000C000500D0000000000100000000000000010B3
:1000D0000400000000B5FEE700B5FEE700B5FEE74E
:1000E00000B5FEE770B5124B12480AE01D6859686A
:1000F0009C6800220C3302E05659043240C1A242EF
:10010000FAD38342F2D309E019685D680A1C083308
:1001100000E001C2561AAE4202D2FAE7064C0020B5
:10012000A342F1D300F092FA00F016FBFEE7C046BE
:10013000C0000000CC000000D400000000B5FEE7C5
:1001400000B5FEE7074B40201A1DD16F0143D16770
:100150005968054A0A405A6059688022D2000A4309
:100160005A60704700800440FFFBFFFF00B51F2965
:100170000AD88423A0229B011206D05801238B4069
:100180001840411E884107E00020FF2904D1842344
:10019000A0229B011206D05800BD00B50120A0236B
:1001A00088401B06011C002A01D0882200E08A2218
:1001B0009201995000BD00000F4B8021DA6F0220A0
:1001C0000A43DA670D4B0E4A01211A60E0224942C8
:1001D00052009950A022802312069B01D15801435E
:1001E000D150D15804200143D150D158202001438F
:1001F000D150D158D15070470480044000C0004015
:100200000400FFFF38B50020021C0521FFF7C5FFE1
:10021000012000F0D7F80020021C0221FFF7BDFFEB
:10022000012000F0CFF800251F2400200521021C2A
:10023000FFF7B3FF012000F0C5F800200321FFF70E
:1002400095FF002802D00123A3401D430020052173
:100250000122FFF7A2FF012000F0B4F8013CE4D234
:10026000044800F0E7F9002002210122FFF795FF82
:10027000281C38BD340D0000F8B5051CFFF7C2FF7F
:10028000430703D0164800F0D5F921E0830C032082
:100290001922184050438022DC049201640D13425D
:1002A00001D06442A4B228606C6000F010FD0B4BDA
:1002B000094A00F091FA061C201C0F1C00F007FDF3
:1002C000021C0B1C301C391C00F032FCA860E960D9
:1002D000F8BDC046C046C0467B14AE47E17A843FB5
:1002E000160D0000C046C0461FB5FFF72BFFE120EA
:1002F000400200F0DFF9164800F03EF8FFF75CFF1F
:10030000002300930193114B0F4A029203930121A2
:100310000A1C0020FFF741FFFA20400000F052F8CD
:100320000020021C0121FFF738FFFA20400000F0F6
:1003300049F86846FFF7A0FF0199009A054800F0C8
:1003400079F9E4E7C046C046000000000000000064
:1003500030750000360D000000B5054B0122D9684C
:10036000114204D0DA60034B1A6801321A6000BDF2
:10037000004000400000001010B50E4B8022191DF7
:10038000CC6FD2001443CC675C6880218C435C60E6
:100390005C6821435960084B00211960074B80219C
:1003A0001860186809060143196001219960044B1F
:1003B0001A6010BD008004400000001000400040A2
:1003C00000E100E000B5034B00221A601A68824287
:1003D000FCD300BD0000001008B500F0B1F908BD65
:1003E00008B5031E05D01A6811701A6801321A6028
:1003F00002E0081CFFF7F0FF08BDF7B5141C00224F
:1004000001900F1C2026944201DC0CE00132B95C03
:100410000029FBD1A24201DAA41A00E00C1C20261C
:100420009A0700D530260025DA070CD4251C04E0F5
:100430000198311CFFF7D4FF013D002DF8DCE543A6
:10044000ED172540641B7F1B03E00198FFF7C8FFF1
:100450000135795D0029F8D1271C04E00198311C91
:10046000FFF7BEFF013F002FF8DCE043C017044058
:100470002819FEBDF0B589B00290171C0E9E0C1E07
:1004800009D105AB30221A705970321C191C0F9B10
:10049000FFF7B3FF3FE000220192002B06D00A2FA6
:1004A00004D1944202DA01236442019305AB002295
:1004B000DA72109B6D463A3B1F3503930FE0201C08
:1004C000391C00F04DF9092901DD039BC9183031B1
:1004D000013D2970201C391C00F042F9041C002C3D
:1004E000EDD1019C002C0FD0002E09D00F9A92075D
:1004F00006D502982D21FFF773FF013E012403E08A
:10050000013D2D232B7000240298291C321C0F9BC7
:10051000FFF773FF201809B0F0BD0000F0B589B0F7
:10052000061C0D1C0592002477E0252B6FD16978FD
:10053000002975D06A1C252968D000232D2901D1F6
:10054000AA1C0123151C02E00220013503432A786E
:10055000302AF9D000220A279C4602E07A4301356E
:1005600012182978081C3038C3B2092BF6D9634613
:10057000732907D10599081D09680590002941D103
:100580002B493FE064290ED10599081D09680193A4
:100590006123059000920293301C0A220123FFF789
:1005A00069FF241838E0782907D10599081D0590BE
:1005B000096801930092612308E058290AD105993E
:1005C000081D059009680193009241230293301C95
:1005D00010220BE075290BD10599081D09680193BC
:1005E0006123059000920293301C0A220023D6E773
:1005F000632911D10598011D0068059107A90870AC
:1006000000204870301CFFF7F8FECAE7151C297857
:10061000301CFFF7E5FE013401352B78002B84D127
:10062000002E02D0336800221A70201C09B0F0BDE1
:10063000470D00000FB407B504AA02CA00200192BA
:10064000FFF76CFF03B008BC04B0184710B5154A9B
:100650001548D16F154B0143D16700221A6401225E
:100660005A64111C586C114A0842FBD02421916035
:100670008E21890050588024A04350500120DC680E
:100680000A4901220442FAD0032008674A67596FD9
:100690001142FCD0054B02229A67054B00221A61D9
:1006A00010BDC04604800440800004000080044067
:1006B00000000440F7B51E4C1E4F231C943301224A
:1006C000009008261A603B1DDE67231DD96F80222B
:1006D000D2010A43DA676368174DB3436360636806
:1006E00000993343636004232B60144800F038F80A
:1006F000231CF033FF22013828621A601868296A27
:100700001B68013001930D4B01315843009BF434B9
:10071000594300F025F8019AD343C01882231B01E6
:100720002060AB603E602B68012213432B60F7BD55
:100730000080044000E100E00040064070383900CD
:1007400000B5044A042391681942FCD0014BD861DA
:1007500000BDC0460040064008B5FFF7C5FD08BD16
:10076000002931D00122D207030901E00901120951
:100770009942FBD9430801E0490052089942FBD94C
:1007800000E04908401A07D35241FAD30146104607
:10079000704749084018F7D29218FAD3401801461A
:1007A00010467047CB0F00D04942021000D540429E
:1007B000534008B5FFF7D4FF0CBC521000D34042A1
:1007C000002A00D549421847F446002000F001F8FD
:1007D0006047704700000000F0B51D1C8BB00B1C7B
:1007E000141C089009912E1C291C151C5A00520D2E
:1007F00000D17CE05048824279D04900490D76D042
:10080000814274D08918321C5A40D20FD207069206
:100810001B03620D80241B0B64031C43F602802320
:1008200016431B061E4307910021221C301C0B1C83
:1008300000F058FAED02039100212A1C02900B1CD3
:10084000201C00F04FFA0023041C0091301C191CDE
:10085000089A019300F046FA019F04903B1C059111
:10086000281C391C089A00F03DFA019B261C0A1C22
:1008700092197B41041C0498059980185941019BE9
:100880000A1C009D019E52197341029E039FB618D7
:100890005F41A2080243079D284829492B18B94205
:1008A0000AD32849301C6B18391C80197941D40FA0
:1008B000061C26430F1C5200D00F002180248019F3
:1008C00079412406A24201D1012290431E4A93425B
:1008D00005D8069A1B050A439D18291C26E0002B03
:1008E00003DB069D194B1D43069506991DE0321C3E
:1008F0005A401749D20FD2075B008B4204D87000D0
:10090000884204D8111C10E012498B4207D11149CA
:1009100076008E4203D85B0D01D0760D02D10549D9
:10092000034803E0094B191C114300200BB0F0BD34
:10093000000000000000F87FFF07000001FCFFFF3F
:10094000FFFF0F0000FCFFFFFD0700000000F07F2D
:10095000FFFFDFFF0000E0FFF7B51F1C161C3C1C6B
:100960000A1C00900191031C391C301C544008D50E
:10097000802000063B18321C0098019900F0D8F83E
:10098000C3E0BA4202D309D19E4207D38025434037
:100990002D0664195840624061404340604E614FEB
:1009A000150D0C0D2C1B2E40BE4200D1A0E0B44210
:1009B00000D196E01203090380267603120B090B7F
:1009C000324331431F2C4ED80E1CE640921B202789
:1009D000061CE6403C1BA1400E439E1BB3429B41BC
:1009E0005B42011CD21AA140331C002905D0013BF7
:1009F000581C444260414942121AC020400302423E
:100A00004FD1D80FC90F5B000B43520002431C1C8F
:100A10001443A91E002C05D168E0180E12020243EF
:100A20001B020839500BF8D0500C04D1180F1201DA
:100A300002431B010439D00C04D1980F92000243E9
:100A40009B000239100D04D1D80F520002435B0005
:100A50000139ED0AC80A854202D10C05A11853E0FC
:100A6000E907002051E0352C1BD8271C203F0E1C25
:100A7000FE409E1BB3429B415B42D21A40231C1B8B
:100A8000031CA140FB401943000602D0FF23194379
:100A900002E0331C002904D0731E704270414942A9
:100AA000121AD0020CD4013D6C0507D0D80F5200A9
:100AB00002435B00C80F0343490001E0290520E021
:100AC00019480240002909DA0133584258411218E6
:100AD00080200006814201D101218B432D0551194F
:100AE00012E012498C4203D8002C0CD1211C08E0E2
:100AF000110302D00749064807E0002C03D106483D
:100B00000649201C01E0111C181C03B0F0BDC046B2
:100B1000000000000000F87F000000000000F87FE7
:100B2000FFF7FFFFFF070000FFFFEFFFFE070000DA
:100B3000F7B51F1C161C3C1C0A1C00900191031CDD
:100B4000391C301C544008D5802000063B18321C4C
:100B500000980199FFF700FF7BE0BA4204D273408E
:100B600058406240614043403D4E3E4C150D2E4082
:100B7000A64267D00C0D2C1BB4425AD012030903B5
:100B800080267603120B090B324331431F2C10D8F9
:100B90000E1CE64092192027061CE6403C1BA14093
:100BA00031435B188B42894149425218011CA140D4
:100BB00014E0352C12D8261C203E0F1CF740DB1900
:100BC000BB42BF417F42D21940273C1BA140041CBD
:100BD000F4402143000601D0FF200143900218D5C4
:100BE0000133584258411218002901D102218B4388
:100BF0002905540864181C496000884205D85B0820
:100C0000D207181C211C104323E0013529050020C0
:100C10001FE0013D002909DA0133584258411218FA
:100C200080200006814201D101218B432D055119FD
:100C30000EE00E498C4205D8002C08D1D20FD10706
:100C4000201C06E0110302D00449034801E0111CF6
:100C5000181C03B0F0BDC046000000000000F87F83
:100C6000FFF7FFFFFF070000FFFFDFFFFE070000A9
:100C700010B5002802D1031C021C25E0030C01D191
:100C8000000402E080235B04C918030E01D10002B6
:100C900002E080231B04C918030F01D1000102E008
:100CA0008023DB03C918830F01D1800002E0802379
:100CB0009B03C918002801DB400002E080235B038E
:100CC000C918C41263184205101C191C10BD08B5C0
:100CD000C10FC90700D040428023DB05C918FFF7C8
:100CE000C7FF08BD10B543435143C918040C130C8A
:100CF0005C43091992B2040C544380B243435043FD
:100D00002204240C801861411A041B0C80185941DC
:100D100010BD31003000546865726D6F636F75707F
:100D20006C6520436F6E6E656374696F6E204661FB
:100D3000756C740D0A0063656C73697573203D20D2
:100D400025642E25640A00286E756C6C2900FFFF4F
:04000003000000E514
:00000001FF
