:1000000000040010E5000000D5000000D900000049
:1000100000000000000000000000000000000000E0
:1000200000000000000000000000000000000000D0
:100030000000000000000000DD000000E100000002
:1000400041010000410100000000000041010000EA
:10005000410100004101000000000000000000001C
:10006000410100004101000029040000410100009D
:1000700041010000410100000000000041010000BA
:100080000000000000000000000000000000000070
:100090000000000000000000000000000000000060
:1000A0004101000041010000410100004101000048
:1000B0004101000041010000410100004101000038
:1000C0003C090000000000100000000000000010CB
:1000D0000400000000B5FEE700B5FEE700B5FEE74E
:1000E00000B5FEE770B5124B12480AE01D6859686A
:1000F0009C6800220C3302E05659043240C1A242EF
:10010000FAD38342F2D309E019685D680A1C083308
:1001100000E001C2561AAE4202D2FAE7064C0020B5
:10012000A342F1D300F0FAFA00F096FBFEE7C046D6
:10013000C0000000CC000000D400000000B5FEE7C5
:1001400000B5FEE7074B40201A1DD16F0143D16770
:100150005968054A0A405A6059688022D2000A4309
:100160005A60704700800440FFFBFFFF00B51F2965
:100170000AD88423A0229B011206D05801238B4069
:100180001840411E884107E00020FF2904D1842344
:10019000A0229B011206D05800BD00B50120A0236B
:1001A00088401B06011C002A01D0882200E08A2218
:1001B0009201995000BD00000F4B8021DA6F0220A0
:1001C0000A43DA670D4B0E4A01211A60E0224942C8
:1001D00052009950A022802312069B01D15801435E
:1001E000D150D15804200143D150D158202001438F
:1001F000D150D158D15070470480044000C0004015
:100200000400FFFF38B50020021C0521FFF7C5FFE1
:10021000012000F03FF90020021C0221FFF7BDFF82
:10022000012000F037F900241F2500200521021CC1
:10023000FFF7B3FF012000F02DF900200321FFF7A5
:1002400095FF002802D00123AB401C43002005216C
:100250000122FFF7A2FF012000F01CF9013DE4D2CA
:10026000002002210122FFF798FF200D002C00DA68
:10027000404238BD10B5041C01210020221CFFF7AC
:100280008CFF201C10BD000010B5446888B00168C8
:10029000026A436A009484680194C4680294046901
:1002A00003944469049484690594C4690694806A3B
:1002B0000790024800F026FA08B010BD04090000BB
:1002C000F0B593B0FFF73EFFE120400200F05AFA8C
:1002D000524800F0B9F8FFF76FFF00212C2204A864
:1002E000002400F0B5FA0020FFF7C4FF271C01949A
:1002F0000294251C12E0019A002A0FD0484E029B5E
:100300003268D21AFA235B009A4207D9FFF77AFFC4
:100310000D9004A8FFF7B8FF36680296049B002BE7
:1003200077D03F4A1368642B73D9FFF76BFF0C9E9D
:10033000099B361A0799059AF31A0B9372434B439C
:100340000D900A980699D318301808960A900393CE
:100350000E93002904D000F083FA039B18180E9026
:100360000E9B09960120002B00DC0020FFF782FF86
:1003700004A8FFF789FF4CE000F05EFA0FAB0A28F3
:1003800045D11A78532A38D006D8492A2FD0502A76
:100390002AD0442A33D12DE0702A0DD0722A11D0F0
:1003A000642A2CD17B425F41381CFFF763FF391C64
:1003B0001C4800F0A7F922E05B78313B5A425A41D1
:1003C00001921CE05B78312B02D10123049305E0FC
:1003D0000495089509950A950B950E9504980028A3
:1003E0000DD1FFF747FF0AE05B78059307E05B78E4
:1003F000069304E05B78079301E05B780C9300239D
:100400000FAA9D5401330A2BFAD1002473E7185523
:10041000013400F009FA0028AED16CE73075000015
:10042000000000102609000000B5054B0122D96824
:10043000114204D0DA60034B1A6801321A6000BD21
:10044000004000400000001010B50E4B8022191D26
:10045000CC6FD2001443CC675C6880218C435C6015
:100460005C6821435960084B00211960074B8021CB
:100470001860186809060143196001219960044B4E
:100480001A6010BD008004400000001000400040D1
:1004900000E100E000B5034B00221A601A688242B6
:1004A000FCD300BD0000001008B500F0B1F908BD94
:1004B00008B5031E05D01A6811701A6801321A6057
:1004C00002E0081CFFF7F0FF08BDF7B5141C00227E
:1004D00001900F1C2026944201DC0CE00132B95C33
:1004E0000029FBD1A24201DAA41A00E00C1C20264C
:1004F0009A0700D530260025DA070CD4251C04E025
:100500000198311CFFF7D4FF013D002DF8DCE543D5
:10051000ED172540641B7F1B03E00198FFF7C8FF20
:100520000135795D0029F8D1271C04E00198311CC0
:10053000FFF7BEFF013F002FF8DCE043C017044087
:100540002819FEBDF0B589B00290171C0E9E0C1E36
:1005500009D105AB30221A705970321C191C0F9B3F
:10056000FFF7B3FF3FE000220192002B06D00A2FD5
:1005700004D1944202DA01236442019305AB0022C4
:10058000DA72109B6D463A3B1F3503930FE0201C37
:10059000391C00F068F9092901DD039BC9183031C5
:1005A000013D2970201C391C00F05DF9041C002C51
:1005B000EDD1019C002C0FD0002E09D00F9A92078C
:1005C00006D502982D21FFF773FF013E012403E0B9
:1005D000013D2D232B7000240298291C321C0F9BF7
:1005E000FFF773FF201809B0F0BD0000F0B589B027
:1005F000061C0D1C0592002477E0252B6FD169782D
:10060000002975D06A1C252968D000232D2901D125
:10061000AA1C0123151C02E00220013503432A789D
:10062000302AF9D000220A279C4602E07A4301359D
:1006300012182978081C3038C3B2092BF6D9634642
:10064000732907D10599081D09680590002941D132
:100650002B493FE064290ED10599081D09680193D3
:100660006123059000920293301C0A220123FFF7B8
:1006700069FF241838E0782907D10599081D0590ED
:10068000096801930092612308E058290AD105996D
:10069000081D059009680193009241230293301CC4
:1006A00010220BE075290BD10599081D09680193EB
:1006B0006123059000920293301C0A220023D6E7A2
:1006C000632911D10598011D0068059107A90870DB
:1006D00000204870301CFFF7F8FECAE7151C297887
:1006E000301CFFF7E5FE013401352B78002B84D157
:1006F000002E02D0336800221A70201C09B0F0BD11
:10070000330900000FB407B504AA02CA0020019201
:10071000FFF76CFF03B008BC04B0184710B5154ACA
:100720001548D16F154B0143D16700221A6401228D
:100730005A64111C586C114A0842FBD02421916064
:100740008E21890050588024A04350500120DC683D
:100750000A4901220442FAD0032008674A67596F08
:100760001142FCD0054B02229A67054B00221A6108
:1007700010BDC04604800440800004000080044096
:1007800000000440F7B51E4C1E4F231C9433012279
:10079000009008261A603B1DDE67231DD96F80225A
:1007A000D2010A43DA676368174DB3436360636835
:1007B00000993343636004232B60144800F053F81E
:1007C000231CF033FF22013828621A601868296A56
:1007D0001B68013001930D4B01315843009BF434E9
:1007E000594300F040F8019AD343C01882231B01FB
:1007F0002060AB603E602B68012213432B60F7BD85
:100800000080044000E100E00040064070383900FC
:1008100000B5044A042391681942FCD0014BD86109
:1008200000BDC04600400640024B986801231840B6
:100830007047C0460040064000B5044B012298684E
:10084000104001D05869C0B200BDC046004006400B
:1008500008B500F042F808BD08B5FFF731FD08BD46
:1008600003000B4321D4002931D00122D207030910
:1008700001E0090112099942FBD9430801E049004E
:1008800052089942FBD900E04908401A07D3524167
:10089000FAD301461046704749084018F7D292181B
:1008A000FAD34018014610467047CB0F00D049429A
:1008B000021000D54042534008B5FFF7D4FF0CBCEE
:1008C000521000D34042002A00D549421847F4464E
:1008D000002000F001F8604770478446043A09D3CD
:1008E000830707D109060B0A19430B0C1943043A75
:1008F00002C0FCD2043203D001700130013AFBD1B6
:100900006046704725642C25642C25642C25642CB6
:1009100025642C25642C25642C25642C25642C2529
:10092000642C25640A006469674F7574203D202596
:0C093000640A00286E756C6C2900FFFF43
:04000003000000E514
:00000001FF
